:100F3A00140A402CCCCD40CCCCCD40F00000410965
:100F4A00999A411B33330520000000000005320046
:100F5A0000000000052A00000000000127000137F8
:100F6A0000012F00010800010901011E00011F00F4
:1010B500E4FDFCC3ED9FEC9E5015E4FBFA0BBB0071
:0F10C500010AEB64784A70F50DBD00010C80E460
:0110D40022F9
:10113800758911758CB7758AFED28CE4F58BF58D9F
:03114800D28E2222
:03001B00020B775E
:100B7700C0E0C0F0C083C082C0D075D000C000C044
:0D0B870001C002C003C004C005C006C007C5
:100B94007538007D04AFA0121001EF7008752001B4
:100BA400F52F12104D7D03AFA0121001EF700975DF
:100BB4002101752F0112104D7D02AFA0121001EF1B
:100BC4007009752201752F0212104D7D01AFA0121C
:100BD4001001EF7009752301752F0312104DE4FD08
:100BE400AFA0121001EF7009752401752F041210C3
:100BF4004D7D07AF80121001EF7009752A01F52FA2
:100C0400FF12116E7D05AF80121001EF700B75336A
:100C140001752F017F0112116E7D03AF8012100147
:100C2400EF700B753401752F027F0112116E7D0177
:100C3400AF80121001EF700B753501752F037F0122
:100C440012116E7D06AF80121001EF700A752B0130
:100C5400752F01FF12116E7D04AF80121001EF7029
:100C64000A752C01752F02FF12116E7D02AF8012DE
:100C74001001EF700A752D01752F03FF12116EE438
:100C8400FDAF80121001EF700B753601752F047FD4
:100C94000112116E752700753700E538D39404509E
:100CA4001874322538F8E62527F527742A2538F8EC
:090CB400E62537F537053880E12B
:100CBD00D007D006D005D004D003D002D001D0008B
:0B0CCD00D0D0D082D083D0F0D0E03235
:03000B000210F1EF
:1010F100C0E0B2B430B409E530F58C85318A80079F
:0A110100E528F58C85298AD0E0323C
:03000300020F8267
:100F8200C0E0C0D075D000C002C003C004C005C01C
:100F920006C007E51F60077FD07E071210B5D00795
:0F0FA200D006D005D004D003D002D0D0D0E0329A
:100CD80075FFDE75FFAD75B214E4F5E175E21475C4
:100CE800E340D2AFD2A8D2AAD288D28AD2A9D2ABB4
:100CF800121138E4FF12116612115DE4FDFF1210A3
:100D0800D57D017F011210D5E4FDAFA412110B7D32
:100D180002AFA412110B7D01AFA412110B7D04AF19
:100D2800A412110B7D03AFA412110B7D06AFA41200
:100D3800110B7D05AFA412110B7D07AFA412110B87
:100D4800E4FDAFA612110B7D01AFA612110B7D02B7
:100D5800AFA612110B7D03AFA612110B7D04AFA62F
:0D0D680012110BAFA512117512114B80FB7B
:10114B00E52F6508600BE509B40103020E80120E52
:02115B00E1228F
:10104D00E52F6508601CE52FD39508400B743225FC
:10105D002FF8760175090122742A252FF87601E4FF
:03106D00F5092260
:07116E00E51E70028F09224B
:100E8000120FB17539008F3A753B0085083CD3E5E8
:100E90003C953AE5396480F8E53B6480985037E545
:100EA0003C6405453B602F751E01AF3C121166E5A1
:100EB0003C120E01853C087FFA7E001210B5743298
:100EC000253CF8E6B40105E4F6121093053CE53C38
:100ED00070BC053B80B8E4F51EE5376003120EE1F7
:010EE00022EF
:100EE100120FD9753D008F3E753F00850840C3E55F
:100EF10040953EE53D6480F8E53F648098402F755C
:100F01001E01AF40121166E540120E018540087FB7
:100F1100FA7E001210B5742A2540F8E6B40105E402
:100F2100F6121093E540154070C4153F80C0E4F5FA
:080F31001EE5276003120E808B
:010F39002295
:100FB100E536B401037F0422E535B401037F032242
:100FC100E534B401037F0222E533B401037F01223A
:080FD100E532B401027F0022A9
:100FD900E52AB401037F0022E52BB401037F012236
:100FE900E52CB401037F0222E52DB401037F03221E
:080FF900E52EB401027F042281
:10109300751F01E4FF1211247F011211247FE87EE2
:1010A300031210B5E4FF1211247F01121124E4F599
:0210B3001F22FA
:0A0E010025E025E0240AF8120B6B2F
:080E0B008F448E438D428C419F
:100E1300754800754702754690754546E4FBFA79B7
:100E2300C87842AF48AE47AD46AC45120A01AB4461
:100E3300AA43A942A8411208F8120ADC8E308F3166
:100E4300AC30AD31E4120AA3A804A905AA06AB0786
:100E5300AF48AE47AD46AC45120803120ADC8E28F4
:100E63008F29C374FF9531F53174FF9530F530C385
:0C0E730074FF9529F52974FF9528F528D7
:010E7F002250
:10110B007401A805088002C333D8FCF45FFEE4A881
:09111B0005088002C333D8FC2250
:02100100AC073A
:1010030074017E00A805088005C333CE33CED8F91A
:10101300FFECFBE4FEEF5BA805088006CEA2E71316
:05102300CE13D8F8FF18
:0110280022A5
:1010D500EF14600D047012E5A7547F4480F5A780D6
:0C10E50008E5A754BF4440F5A7021029FD
:101124008F41121070BF0104E4FD80027D01AF41C4
:04113400121029224A
:10102900EF14601104701CEDC43333335480FFE5B1
:10103900B0547F800BEDC4333354C0FFE5B054BFC7
:041049004FF5B0228D
:10107000E4FEEF146010047017E5B05480C413133D
:10108000135401FE800AE5B05440C413135403FE08
:02109000AF06A9
:01109200223B
:070F7A0005493F065B4F66CD
:011175002257
:0811660074492FF8E6F5902210
:09115D00E5A754EF4410F5A722A8
:10080000020B48E86480F8E933E83360110460F0D3
:10081000ED33EC337009E8FCE9FDEAFEEBFF22045E
:1008200060DED3EB9FEA9EE99DE8C2E78CF0C2F759
:1008300095F0400CE8CCF8E9CDF9EACEFAEBCFFB25
:10084000120B1385D0F05804700320D5B3E8047060
:10085000075002B2D5020B5292D5EC0460F7E4CCFB
:10086000C0E0C398F8603B94186008400DD0E0FBEE
:10087000020B2AE4FBFAC9FC8028E830E406E4C94C
:10088000FBE4CAFCE830E305E4C9CACBFCE8540742
:100890006010F8C3E913F9EA13FAEB13FBEC13FC4D
:1008A000D8F130F52FC3E49CFCEF9BFFEE9AFEEDF0
:1008B00099FDD0E0FBEF4E4D4C701222DB03020B92
:1008C0004FEC2CFCEF33FFEE33FEED33FDED30E764
:1008D000EB020B2AEF2BFFEE3AFEED39FDD0E0FBE9
:1008E00050130BBB0003020B52ED13FDEE13FEEF92
:0808F00013FFEC13FC020B2ABC
:1008F800EC4D6011E8497017ED33EC3304600DE4FA
:10090800FCFFFEFD22E933E8330470F8020B4812BD
:100918000B1358046009E4CC2481500628500902BE
:100928000B52284003020B4FC0E0EB4A7044B980D9
:1009380006D0E0FB020B3EEF4E701CBD8008EBFFBB
:10094800EAFEE9FD80EBE98DF0A4FEE5F00209E19D
:10095800E9CDF9EAFEEBFFEF89F0A4FCE5F0CE89DA
:10096800F0A42EFFE435F0CD89F0A42DFEE435F097
:100978008067EF4E7005BD80D780C3EF8BF0A4ACC5
:10098800F0EE8BF0A42CFCE435F0F8EF8AF0A42C00
:10099800E5F038FCE433CB8DF0A42CFCE5F03BF813
:1009A800EE8AF0A42CFCE5F038F8E433CF89F0A403
:1009B8002CFCE5F038CF3400CE89F0A42FFFE5F009
:1009C8003EFEE433C98DF0A42EFEE5F039CD8AF061
:1009D800A42FFFE5F03EFEE43DFD33D0E0FB5007D9
:1009E8000BBB000F020B52EC2CFCEF33FFEE33FE77
:0609F800ED33FD020B2AA5
:1009FE00020B52EC5D046005E859047003020B48CB
:100A0E00120B13580460F6EC4860F2EC7004FDFE15
:100A1E00FF22C860DB2481C85009C39860025006CB
:100A2E00020B4F9850CAF582E9294B4A7005AB82EA
:100A3E00020B3E75F0007C1A7880C3EF9BEE9AEDA8
:100A4E0099400DC3EF9BFFEE9AFEED99FDE842F043
:100A5E00DC23ACF0D0E0FFD0E0FED0E0FDAB822096
:100A6E00E7101BEB60BAEC2CFCEF33FFEE33FEED20
:100A7E0033FD020B2AE803F830E705C0F075F000ED
:100A8E00EF2FFFEE33FEED33FD40B830E7C280AA04
:100A9E0075F020800E75F010800575F0087D007ED3
:100AAE00007F003392D530D503120B5DEC3340102E
:100ABE00EF33FFEE33FEED33FDEC33FCD5F0ED22DC
:0E0ACE00E5F0247EA2D513CC92E7CDCEFF2218
:100ADC00EDD2E7CD33EC3392D524814006E4FFFE12
:100AEC00FDFC22FCE4CFCECDCC24E0501174FF8071
:100AFC00EDC3CC13CCCD13CDCE13CECF13CF04700E
:070B0C00F030D5DE020B5DA5
:100B1300E9D2E7C933E833F892D5EDD2E7CD33EC28
:070B230033FC5002B2D522A1
:100B2A00EC30E7100FBF000C0EBE00080DBD00042C
:100B3A000BEB6014A2D5EB13FCED92E7FD2274FFD8
:100B4A00FCFDFEFF22E480F8A2D574FF13FC7D8031
:030B5A00E480EF45
:03000000020D7579
:0C0D7500787FE4F6D8FD75814D020DBCBE
:0E0B5D00C3E49FFFE49EFEE49DFDE49CFC22A9
:0C0B6B00E6FC08E6FD08E6FE08E6FF22B6
:100D8100020CD8E493A3F8E493A34003F68001F2A4
:100D910008DFF48029E493A3F85407240CC8C33373
:100DA100C4540F4420C8834004F456800146F6DF42
:100DB100E4800B0102040810204080900F3AE47E89
:100DC100019360BCA3FF543F30E509541FFEE49337
:100DD100A360010ECF54C025E060A840B8E493A3FE
:100DE100FAE493A3F8E493A3C8C582C8CAC583CA29
:100DF100F0A3C8C582C8CAC583CADFE9DEE780BEE1
:010F8100006F
:00000001FF
