:03000B00020800E8
:10080000C0E0C0F0C083C082C0D075D000C000C0BE
:1008100001C002C003C004C005C006C007E4FF1247
:1008200008C4C28BD007D006D005D004D003D002B4
:0F083000D001D000D0D0D082D083D0F0D0E03231
:10083F0075FFDE75FFAD75B214E4F5E175E216755F
:10084F00E340C2AFD2AA438E0C538980438904D2AE
:10085F00A9D2AB758AFC758CFF758BFB758DFFFD6F
:0E086F00FF1208D8E4FD7F011208D8D2AF2294
:1008D800EF14600804700853A77F800353A7BF0272
:0208E800087D89
:1008C4008F081208A1BF0104E4FD80027D01AF0876
:0408D40012087D2267
:10087D00EF14601104701CEDC43333335480FFE565
:10088D00B0547F800BEDC4333354C0FFE5B054BF7B
:04089D004FF5B02241
:1008A100E4FEEF146010047017E5B05480C4131314
:1008B100135401FE800AE5B05440C413135403FEDF
:0208C100AF0680
:0108C3002212
:030000000208EA09
:0C08EA00787FE4F6D8FD75810802083F15
:00000001FF
