:100B3700050C000000000005180000000000051269
:100B47000000000000011100011D0001170001084D
:0A0B570000010901010A00010B0072
:100C9C00E4FDFCC3ED9FEC9E5015E4FBFA0BBB008E
:0F0CAC00010AEB64784A70F50DBD00010C80E47D
:010CBB002216
:100D1700758911E4F58AF58CD28CF58BF58DD28E19
:010D270022A9
:03001B00020800D8
:10080000C0E0C0F0C083C082C0D075D000C000C0BE
:0D08100001C002C003C004C005C006C0073F
:10081D00751E007D04AFA0120BE8EF7008750C017A
:10082D00F517120C347D03AFA0120BE8EF700975AC
:10083D000D01751701120C347D02AFA0120BE8EFFC
:10084D007009750E01751702120C347D01AFA012DF
:10085D000BE8EF7009750F01751703120C34E4FDE9
:10086D00AFA0120BE8EF7009751001751704120C8B
:10087D00347D07AF80120BE8EF7009751201F51783
:10088D00FF120D307D05AF80120BE8EF700B75195F
:10089D00017517017F01120D307D03AF80120BE83A
:1008AD00EF700B751A017517027F01120D307D0166
:1008BD00AF80120BE8EF700B751B017517037F01ED
:1008CD00120D307D06AF80120BE8EF700A75130123
:1008DD00751701FF120D307D04AF80120BE8EF701C
:1008ED000A751401751702FF120D307D02AF8012CB
:1008FD000BE8EF700A751501751703FF120D30E443
:10090D00FDAF80120BE8EF700B751C017517047F9E
:10091D0001120D30751100751D00E51ED3940450A4
:10092D00187418251EF8E62511F5117412251EF8F8
:09093D00E6251DF51D051E80E1F3
:10094600D007D006D005D004D003D002D001D00005
:0B095600D0D0D082D083D0F0D0E032AF
:03000300020B6984
:100B6900C0E0C0D075D000C002C003C004C005C039
:100B790006C007E50B60077FD07E07120C9CD007E3
:0F0B8900D006D005D004D003D002D0D0D0E032B7
:1009610075FFDE75FFAD75B214E4F5E175E216753C
:10097100E340D2AFD2A8D2AAD288D28AD2A9D2AB2E
:10098100120D17E4FF120D28E4FDFF120CBC7D01CE
:100991007F01120CBCE4FDAFA4120CD87D02AFA400
:1009A100120CD87D01AFA4120CD87D04AFA4120C97
:1009B100D87D03AFA4120CD87D06AFA4120CD87D4C
:1009C10005AFA4120CD87D07AFA4120CD8E4FDAF7B
:1009D100A6120CD87D01AFA6120CD87D02AFA612CB
:1009E1000CD87D03AFA6120CD87D04AFA6120CD88B
:0A09F100AFA5120D37120D0580FBB3
:100D0500E5176508600BE509B40103020A87120AB5
:020D1500E322D7
:100C3400E5176508601CE517D39508400B74182563
:100C440017F876017509012274122517F87601E464
:030C5400F509227D
:070D3000E50A70028F0922A1
:100A8700120B98751F008F20752100850822D3E56A
:100A9700229520E51F6480F8E5216480985032E5AF
:100AA7002264054521602A750A01AF22120D2885A7
:100AB70022087FFA7E00120C9C74182522F8E6B4EF
:100AC7000105E4F6120C7A0522E52270C1052180A2
:0B0AD700BDE4F50AE51D6003120AE310
:010AE20022F1
:100AE300120BC07523008F24752500850826C3E5E6
:100AF300269524E5236480F8E525648098402A75CB
:100B03000A01AF26120D288526087FFA7E00120CF3
:100B13009C74122526F8E6B40105E4F6120C7AE576
:100B230026152670C9152580C5E4F50AE51160036D
:030B3300120A871C
:010B3600229C
:100B9800E51CB401037F0422E51BB401037F032293
:100BA800E51AB401037F0222E519B401037F01228B
:080BB800E518B401027F0022E0
:100BC000E512B401037F0022E513B401037F012283
:100BD000E514B401037F0222E515B401037F03226B
:080BE000E516B401027F0422B6
:100C7A00750B01E4FF120CF17F01120CF17FE87E83
:100C8A0003120C9CE4FF120CF17F01120CF1E4F543
:020C9A000B222B
:100CD8007401A805088002C333D8FCF45FFEE4A8B9
:090CE80005088002C333D8FC2288
:020BE800AC0758
:100BEA0074017E00A805088005C333CE33CED8F938
:100BFA00FFECFBE4FEEF5BA805088006CEA2E71334
:050C0A00CE13D8F8FF35
:010C0F0022C2
:100CBC00EF14600D047012E5A7547F4480F5A780F3
:0C0CCC0008E5A754BF4440F5A7020C1037
:100CF1008F27120C57BF0104E4FD80027D01AF274D
:040D0100120C10229E
:100C1000EF14601104701CEDC43333335480FFE5CE
:100C2000B0547F800BEDC4333354C0FFE5B054BFE4
:040C30004FF5B022AA
:100C5700E4FEEF146010047017E5B05480C413135A
:100C6700135401FE800AE5B05440C413135403FE25
:020C7700AF06C6
:010C79002258
:070B610005283F065B4F660B
:010D37002299
:080D280074282FF8E6F5902273
:030000000209FBF7
:0C09FB00787FE4F6D8FD75812C020A42DA
:100A0700020961E493A3F8E493A34003F68001F29B
:100A170008DFF48029E493A3F85407240CC8C333F0
:100A2700C4540F4420C8834004F456800146F6DFBF
:100A3700E4800B0102040810204080900B37E47E0D
:100A4700019360BCA3FF543F30E509541FFEE493B4
:100A5700A360010ECF54C025E060A840B8E493A37B
:100A6700FAE493A3F8E493A3C8C582C8CAC583CAA6
:100A7700F0A3C8C582C8CAC583CADFE9DEE780BE5E
:010B6800008C
:00000001FF
